{
  "_format": "hh-sol-artifact-1",
  "contractName": "NFTMarket",
  "sourceName": "contracts/NFTMarket.sol",
  "abi": [
    {
      "anonymous": false,
      "inputs": [
        {
          "indexed": true,
          "internalType": "uint256",
          "name": "itemId",
          "type": "uint256"
        },
        {
          "indexed": true,
          "internalType": "address",
          "name": "nftContract",
          "type": "address"
        },
        {
          "indexed": true,
          "internalType": "uint256",
          "name": "tokenId",
          "type": "uint256"
        },
        {
          "indexed": false,
          "internalType": "address",
          "name": "seller",
          "type": "address"
        },
        {
          "indexed": false,
          "internalType": "address",
          "name": "owner",
          "type": "address"
        },
        {
          "indexed": false,
          "internalType": "uint256",
          "name": "price",
          "type": "uint256"
        }
      ],
      "name": "MarketItemCreated",
      "type": "event"
    },
    {
      "inputs": [
        {
          "internalType": "address",
          "name": "nftContract",
          "type": "address"
        },
        {
          "internalType": "uint256",
          "name": "tokenId",
          "type": "uint256"
        },
        {
          "internalType": "uint256",
          "name": "price",
          "type": "uint256"
        }
      ],
      "name": "createMarketItem",
      "outputs": [],
      "stateMutability": "payable",
      "type": "function"
    },
    {
      "inputs": [
        {
          "internalType": "address",
          "name": "nftContract",
          "type": "address"
        },
        {
          "internalType": "uint256",
          "name": "itemId",
          "type": "uint256"
        }
      ],
      "name": "createMarketSale",
      "outputs": [],
      "stateMutability": "payable",
      "type": "function"
    },
    {
      "inputs": [
        {
          "internalType": "uint256",
          "name": "itemId",
          "type": "uint256"
        }
      ],
      "name": "fetchMarketItem",
      "outputs": [
        {
          "components": [
            {
              "internalType": "uint256",
              "name": "itemId",
              "type": "uint256"
            },
            {
              "internalType": "address",
              "name": "nftContract",
              "type": "address"
            },
            {
              "internalType": "uint256",
              "name": "tokenId",
              "type": "uint256"
            },
            {
              "internalType": "address payable",
              "name": "seller",
              "type": "address"
            },
            {
              "internalType": "address payable",
              "name": "owner",
              "type": "address"
            },
            {
              "internalType": "uint256",
              "name": "price",
              "type": "uint256"
            }
          ],
          "internalType": "struct NFTMarket.MarketItem",
          "name": "",
          "type": "tuple"
        }
      ],
      "stateMutability": "view",
      "type": "function"
    },
    {
      "inputs": [],
      "name": "fetchMarketItems",
      "outputs": [
        {
          "components": [
            {
              "internalType": "uint256",
              "name": "itemId",
              "type": "uint256"
            },
            {
              "internalType": "address",
              "name": "nftContract",
              "type": "address"
            },
            {
              "internalType": "uint256",
              "name": "tokenId",
              "type": "uint256"
            },
            {
              "internalType": "address payable",
              "name": "seller",
              "type": "address"
            },
            {
              "internalType": "address payable",
              "name": "owner",
              "type": "address"
            },
            {
              "internalType": "uint256",
              "name": "price",
              "type": "uint256"
            }
          ],
          "internalType": "struct NFTMarket.MarketItem[]",
          "name": "",
          "type": "tuple[]"
        }
      ],
      "stateMutability": "view",
      "type": "function"
    },
    {
      "inputs": [],
      "name": "fetchMyNFTs",
      "outputs": [
        {
          "components": [
            {
              "internalType": "uint256",
              "name": "itemId",
              "type": "uint256"
            },
            {
              "internalType": "address",
              "name": "nftContract",
              "type": "address"
            },
            {
              "internalType": "uint256",
              "name": "tokenId",
              "type": "uint256"
            },
            {
              "internalType": "address payable",
              "name": "seller",
              "type": "address"
            },
            {
              "internalType": "address payable",
              "name": "owner",
              "type": "address"
            },
            {
              "internalType": "uint256",
              "name": "price",
              "type": "uint256"
            }
          ],
          "internalType": "struct NFTMarket.MarketItem[]",
          "name": "",
          "type": "tuple[]"
        }
      ],
      "stateMutability": "view",
      "type": "function"
    },
    {
      "inputs": [
        {
          "internalType": "uint256",
          "name": "marketItemId",
          "type": "uint256"
        }
      ],
      "name": "getMarketItem",
      "outputs": [
        {
          "components": [
            {
              "internalType": "uint256",
              "name": "itemId",
              "type": "uint256"
            },
            {
              "internalType": "address",
              "name": "nftContract",
              "type": "address"
            },
            {
              "internalType": "uint256",
              "name": "tokenId",
              "type": "uint256"
            },
            {
              "internalType": "address payable",
              "name": "seller",
              "type": "address"
            },
            {
              "internalType": "address payable",
              "name": "owner",
              "type": "address"
            },
            {
              "internalType": "uint256",
              "name": "price",
              "type": "uint256"
            }
          ],
          "internalType": "struct NFTMarket.MarketItem",
          "name": "",
          "type": "tuple"
        }
      ],
      "stateMutability": "view",
      "type": "function"
    }
  ],
  "bytecode": "0x608060405234801561001057600080fd5b506001600055610b02806100256000396000f3fe6080604052600436106100555760003560e01c80630f08efe01461005a578063202e3740146100855780632a45b2501461009a57806358eb2df5146100c7578063c23b139e146100dc578063c7be7a491461009a575b600080fd5b34801561006657600080fd5b5061006f6100ef565b60405161007c9190610a0a565b60405180910390f35b34801561009157600080fd5b5061006f61029b565b3480156100a657600080fd5b506100ba6100b53660046109a8565b610485565b60405161007c9190610a58565b6100da6100d5366004610976565b6104f4565b005b6100da6100ea36600461094d565b610715565b606060006100fc60015490565b9050600061010960025490565b6001546101169190610a84565b90506000808267ffffffffffffffff81111561014257634e487b7160e01b600052604160045260246000fd5b60405190808252806020026020018201604052801561017b57816020015b6101686108e5565b8152602001906001900390816101605790505b50905060005b84811015610292576000600381610199846001610a6c565b81526020810191909152604001600020600401546001600160a01b031614156102805760006003816101cc846001610a6c565b81526020808201929092526040908101600090812054808252600380855291839020835160c0810185528154815260018201546001600160a01b0390811696820196909652600282015494810194909452918201548416606084015260048201549093166080830152600581015460a083015285519293509185908790811061026557634e487b7160e01b600052603260045260246000fd5b602090810291909101015261027b600186610a6c565b945050505b8061028a81610a9b565b915050610181565b50935050505090565b606060006102a860015490565b905060008060005b8381101561030b5733600360006102c8846001610a6c565b81526020810191909152604001600020600401546001600160a01b031614156102f9576102f6600184610a6c565b92505b8061030381610a9b565b9150506102b0565b5060008267ffffffffffffffff81111561033557634e487b7160e01b600052604160045260246000fd5b60405190808252806020026020018201604052801561036e57816020015b61035b6108e5565b8152602001906001900390816103535790505b50905060005b8481101561029257336003600061038c846001610a6c565b81526020810191909152604001600020600401546001600160a01b031614156104735760006003816103bf846001610a6c565b81526020808201929092526040908101600090812054808252600380855291839020835160c0810185528154815260018201546001600160a01b0390811696820196909652600282015494810194909452918201548416606084015260048201549093166080830152600581015460a083015285519293509185908790811061045857634e487b7160e01b600052603260045260246000fd5b602090810291909101015261046e600186610a6c565b945050505b8061047d81610a9b565b915050610374565b61048d6108e5565b50600081815260036020818152604092839020835160c0810185528154815260018201546001600160a01b0390811693820193909352600282015494810194909452918201548116606084015260048201541660808301526005015460a08201525b919050565b6002600054141561054c5760405162461bcd60e51b815260206004820152601f60248201527f5265656e7472616e637947756172643a207265656e7472616e742063616c6c0060448201526064015b60405180910390fd5b60026000558061059e5760405162461bcd60e51b815260206004820152601c60248201527f5072696365206d757374206265206174206c65617374203120776569000000006044820152606401610543565b6105ac600180546001019055565b60006105b760015490565b6040805160c0810182528281526001600160a01b0387811660208084018281528486018a8152336060870181815260006080890181815260a08a018e81528c8352600397889052918b902099518a55945160018a0180546001600160a01b0319908116928b16929092179055935160028a01559051948801805484169588169590951790945591516004808801805490931691909616179055905160059094019390935592516323b872dd60e01b81529081019190915230602482015260448101869052919250906323b872dd90606401600060405180830381600087803b1580156106a257600080fd5b505af11580156106b6573d6000803e3d6000fd5b505060408051338152600060208201529081018590528592506001600160a01b038716915083907f2ad024d53a0dc50c130967f8d4941927ee087ea31394cebb2b9599d3706c9c009060600160405180910390a4505060016000555050565b600260005414156107685760405162461bcd60e51b815260206004820152601f60248201527f5265656e7472616e637947756172643a207265656e7472616e742063616c6c006044820152606401610543565b6002600081815582815260036020526040902060058101549101543482146107fa576040805162461bcd60e51b81526020600482015260248101919091527f506c65617365207375626d6974207468652061736b696e67207072696365206960448201527f6e206f7264657220746f20636f6d706c657465207468652070757263686173656064820152608401610543565b60008381526003602081905260408083209091015490516001600160a01b03909116913480156108fc02929091818181858888f19350505050158015610844573d6000803e3d6000fd5b506040516323b872dd60e01b8152306004820152336024820152604481018290526001600160a01b038516906323b872dd90606401600060405180830381600087803b15801561089357600080fd5b505af11580156108a7573d6000803e3d6000fd5b505050600084815260036020526040902060040180546001600160a01b03191633179055506108da600280546001019055565b505060016000555050565b6040518060c001604052806000815260200160006001600160a01b031681526020016000815260200160006001600160a01b0316815260200160006001600160a01b03168152602001600081525090565b80356001600160a01b03811681146104ef57600080fd5b6000806040838503121561095f578182fd5b61096883610936565b946020939093013593505050565b60008060006060848603121561098a578081fd5b61099384610936565b95602085013595506040909401359392505050565b6000602082840312156109b9578081fd5b5035919050565b80518252602081015160018060a01b03808216602085015260408301516040850152806060840151166060850152806080840151166080850152505060a081015160a08301525050565b6020808252825182820181905260009190848201906040850190845b81811015610a4c57610a398385516109c0565b9284019260c09290920191600101610a26565b50909695505050505050565b60c08101610a6682846109c0565b92915050565b60008219821115610a7f57610a7f610ab6565b500190565b600082821015610a9657610a96610ab6565b500390565b6000600019821415610aaf57610aaf610ab6565b5060010190565b634e487b7160e01b600052601160045260246000fdfea2646970667358221220153e86778a353d5400408614f468f40f9721b00e8d028d49004dbdeec2e8311c64736f6c63430008030033",
  "linkReferences": {},
  "deployedLinkReferences": {}
}